:100000000200CC80108D998D3680003099028002DC
:1000100080F9C2992280EE805C780179007A007BB9
:10002000227D147C0012008D758920758DF4D28E8E
:10003000758740E4F520F521E52124ECE52034FF27
:10004000500280028002802A74222521F987E075FF
:10005000984074222521F987051200030521E52126
:1000600070020520E52124ECE52034FF50028002D7
:1000700080D680FE2280A2898288838B00EC4D602E
:1000800036E4E0F608A31DBDFFF31C80F0B80011B4
:100090008B00EC4D6021E7F609081DBDFFF41C80C4
:1000A000F1898288838B00EC4D600CE493F608A301
:1000B0001DBDFFF31C80F022E4F5D0758137782058
:0F00C0007A17F608DAFC1200170200000200B8E7
:10010000303132333435363738396162636465668D
:040110006768692192
:00000001FF
